{
  "contractName": "Campaign",
  "abi": [
    {
      "inputs": [
        {
          "internalType": "uint256",
          "name": "_minimum",
          "type": "uint256"
        },
        {
          "internalType": "address",
          "name": "_manager",
          "type": "address"
        },
        {
          "internalType": "string",
          "name": "_title",
          "type": "string"
        }
      ],
      "stateMutability": "nonpayable",
      "type": "constructor"
    },
    {
      "inputs": [
        {
          "internalType": "address",
          "name": "",
          "type": "address"
        }
      ],
      "name": "approvers",
      "outputs": [
        {
          "internalType": "bool",
          "name": "",
          "type": "bool"
        }
      ],
      "stateMutability": "view",
      "type": "function"
    },
    {
      "inputs": [],
      "name": "approversCount",
      "outputs": [
        {
          "internalType": "uint256",
          "name": "",
          "type": "uint256"
        }
      ],
      "stateMutability": "view",
      "type": "function"
    },
    {
      "inputs": [],
      "name": "manager",
      "outputs": [
        {
          "internalType": "address",
          "name": "",
          "type": "address"
        }
      ],
      "stateMutability": "view",
      "type": "function"
    },
    {
      "inputs": [],
      "name": "minimumContribution",
      "outputs": [
        {
          "internalType": "uint256",
          "name": "",
          "type": "uint256"
        }
      ],
      "stateMutability": "view",
      "type": "function"
    },
    {
      "inputs": [],
      "name": "title",
      "outputs": [
        {
          "internalType": "string",
          "name": "",
          "type": "string"
        }
      ],
      "stateMutability": "view",
      "type": "function"
    },
    {
      "inputs": [],
      "name": "contribute",
      "outputs": [],
      "stateMutability": "payable",
      "type": "function"
    },
    {
      "inputs": [
        {
          "internalType": "string",
          "name": "_description",
          "type": "string"
        },
        {
          "internalType": "uint256",
          "name": "_value",
          "type": "uint256"
        },
        {
          "internalType": "address",
          "name": "_recipient",
          "type": "address"
        }
      ],
      "name": "createRequest",
      "outputs": [],
      "stateMutability": "nonpayable",
      "type": "function"
    },
    {
      "inputs": [
        {
          "internalType": "uint256",
          "name": "_requestId",
          "type": "uint256"
        }
      ],
      "name": "approveRequest",
      "outputs": [],
      "stateMutability": "nonpayable",
      "type": "function"
    },
    {
      "inputs": [
        {
          "internalType": "uint256",
          "name": "_requestId",
          "type": "uint256"
        }
      ],
      "name": "finalizeRequest",
      "outputs": [],
      "stateMutability": "nonpayable",
      "type": "function"
    },
    {
      "inputs": [],
      "name": "getSummary",
      "outputs": [
        {
          "internalType": "uint256",
          "name": "",
          "type": "uint256"
        },
        {
          "internalType": "uint256",
          "name": "",
          "type": "uint256"
        },
        {
          "internalType": "uint256",
          "name": "",
          "type": "uint256"
        },
        {
          "internalType": "uint256",
          "name": "",
          "type": "uint256"
        },
        {
          "internalType": "address",
          "name": "",
          "type": "address"
        }
      ],
      "stateMutability": "view",
      "type": "function"
    },
    {
      "inputs": [],
      "name": "getRequestsCount",
      "outputs": [
        {
          "internalType": "uint256",
          "name": "",
          "type": "uint256"
        }
      ],
      "stateMutability": "view",
      "type": "function"
    },
    {
      "inputs": [
        {
          "internalType": "uint256",
          "name": "_requestId",
          "type": "uint256"
        }
      ],
      "name": "getRequest",
      "outputs": [
        {
          "internalType": "string",
          "name": "",
          "type": "string"
        },
        {
          "internalType": "uint256",
          "name": "",
          "type": "uint256"
        },
        {
          "internalType": "address",
          "name": "",
          "type": "address"
        },
        {
          "internalType": "bool",
          "name": "",
          "type": "bool"
        },
        {
          "internalType": "uint256",
          "name": "",
          "type": "uint256"
        }
      ],
      "stateMutability": "view",
      "type": "function"
    }
  ],
  "bytecode": "0x60806040523480156200001157600080fd5b5060405162001a7838038062001a788339818101604052810190620000379190620002cc565b816000806101000a81548173ffffffffffffffffffffffffffffffffffffffff021916908373ffffffffffffffffffffffffffffffffffffffff1602179055508260028190555080600190816200008f919062000588565b505050506200066f565b6000604051905090565b600080fd5b600080fd5b6000819050919050565b620000c281620000ad565b8114620000ce57600080fd5b50565b600081519050620000e281620000b7565b92915050565b600073ffffffffffffffffffffffffffffffffffffffff82169050919050565b60006200011582620000e8565b9050919050565b620001278162000108565b81146200013357600080fd5b50565b60008151905062000147816200011c565b92915050565b600080fd5b600080fd5b6000601f19601f8301169050919050565b7f4e487b7100000000000000000000000000000000000000000000000000000000600052604160045260246000fd5b620001a28262000157565b810181811067ffffffffffffffff82111715620001c457620001c362000168565b5b80604052505050565b6000620001d962000099565b9050620001e7828262000197565b919050565b600067ffffffffffffffff8211156200020a576200020962000168565b5b620002158262000157565b9050602081019050919050565b60005b838110156200024257808201518184015260208101905062000225565b60008484015250505050565b6000620002656200025f84620001ec565b620001cd565b90508281526020810184848401111562000284576200028362000152565b5b6200029184828562000222565b509392505050565b600082601f830112620002b157620002b06200014d565b5b8151620002c38482602086016200024e565b91505092915050565b600080600060608486031215620002e857620002e7620000a3565b5b6000620002f886828701620000d1565b93505060206200030b8682870162000136565b925050604084015167ffffffffffffffff8111156200032f576200032e620000a8565b5b6200033d8682870162000299565b9150509250925092565b600081519050919050565b7f4e487b7100000000000000000000000000000000000000000000000000000000600052602260045260246000fd5b600060028204905060018216806200039a57607f821691505b602082108103620003b057620003af62000352565b5b50919050565b60008190508160005260206000209050919050565b60006020601f8301049050919050565b600082821b905092915050565b6000600883026200041a7fffffffffffffffffffffffffffffffffffffffffffffffffffffffffffffffff82620003db565b620004268683620003db565b95508019841693508086168417925050509392505050565b6000819050919050565b600062000469620004636200045d84620000ad565b6200043e565b620000ad565b9050919050565b6000819050919050565b620004858362000448565b6200049d620004948262000470565b848454620003e8565b825550505050565b600090565b620004b4620004a5565b620004c18184846200047a565b505050565b5b81811015620004e957620004dd600082620004aa565b600181019050620004c7565b5050565b601f82111562000538576200050281620003b6565b6200050d84620003cb565b810160208510156200051d578190505b620005356200052c85620003cb565b830182620004c6565b50505b505050565b600082821c905092915050565b60006200055d600019846008026200053d565b1980831691505092915050565b60006200057883836200054a565b9150826002028217905092915050565b620005938262000347565b67ffffffffffffffff811115620005af57620005ae62000168565b5b620005bb825462000381565b620005c8828285620004ed565b600060209050601f831160018114620006005760008415620005eb578287015190505b620005f785826200056a565b86555062000667565b601f1984166200061086620003b6565b60005b828110156200063a5784890151825560018201915060208501945060208101905062000613565b868310156200065a578489015162000656601f8916826200054a565b8355505b6001600288020188555050505b505050505050565b6113f9806200067f6000396000f3fe6080604052600436106100a75760003560e01c806382fde0931161006457806382fde093146101c25780638a9cfd55146101ed578063937e09b114610216578063c58343ef14610241578063d7bb99ba14610282578063d7d1bbdb1461028c576100a7565b806303441006146100ac5780630a144391146100d55780633410452a146101125780634051ddac1461013d578063481c6a751461016c5780634a79d50c14610197575b600080fd5b3480156100b857600080fd5b506100d360048036038101906100ce9190610a3f565b6102b5565b005b3480156100e157600080fd5b506100fc60048036038101906100f79190610aca565b61048a565b6040516101099190610b12565b60405180910390f35b34801561011e57600080fd5b506101276104aa565b6040516101349190610b3c565b60405180910390f35b34801561014957600080fd5b506101526104b4565b604051610163959493929190610b66565b60405180910390f35b34801561017857600080fd5b506101816104f8565b60405161018e9190610bb9565b60405180910390f35b3480156101a357600080fd5b506101ac61051c565b6040516101b99190610c64565b60405180910390f35b3480156101ce57600080fd5b506101d76105aa565b6040516101e49190610b3c565b60405180910390f35b3480156101f957600080fd5b50610214600480360381019061020f9190610dbb565b6105b0565b005b34801561022257600080fd5b5061022b6106f6565b6040516102389190610b3c565b60405180910390f35b34801561024d57600080fd5b5061026860048036038101906102639190610a3f565b6106fc565b604051610279959493929190610e2a565b60405180910390f35b61028a610800565b005b34801561029857600080fd5b506102b360048036038101906102ae9190610a3f565b6108b7565b005b60008054906101000a900473ffffffffffffffffffffffffffffffffffffffff1673ffffffffffffffffffffffffffffffffffffffff163373ffffffffffffffffffffffffffffffffffffffff1614610343576040517f08c379a000000000000000000000000000000000000000000000000000000000815260040161033a90610ed0565b60405180910390fd5b600060066000838152602001908152602001600020905060026004546103699190610f4e565b81600301541161037857600080fd5b8060020160149054906101000a900460ff161561039457600080fd5b60008160020160009054906101000a900473ffffffffffffffffffffffffffffffffffffffff1673ffffffffffffffffffffffffffffffffffffffff1682600101546040516103e290610fb0565b60006040518083038185875af1925050503d806000811461041f576040519150601f19603f3d011682016040523d82523d6000602084013e610424565b606091505b5050905080610468576040517f08c379a000000000000000000000000000000000000000000000000000000000815260040161045f90611011565b60405180910390fd5b60018260020160146101000a81548160ff021916908315150217905550505050565b60036020528060005260406000206000915054906101000a900460ff1681565b6000600554905090565b60008060008060006002544760055460045460008054906101000a900473ffffffffffffffffffffffffffffffffffffffff16945094509450945094509091929394565b60008054906101000a900473ffffffffffffffffffffffffffffffffffffffff1681565b6001805461052990611060565b80601f016020809104026020016040519081016040528092919081815260200182805461055590611060565b80156105a25780601f10610577576101008083540402835291602001916105a2565b820191906000526020600020905b81548152906001019060200180831161058557829003601f168201915b505050505081565b60045481565b60008054906101000a900473ffffffffffffffffffffffffffffffffffffffff1673ffffffffffffffffffffffffffffffffffffffff163373ffffffffffffffffffffffffffffffffffffffff161461063e576040517f08c379a000000000000000000000000000000000000000000000000000000000815260040161063590610ed0565b60405180910390fd5b6000600660006005600081548092919061065790611091565b91905055815260200190815260200160002090508381600001908161067c9190611285565b50828160010181905550818160020160006101000a81548173ffffffffffffffffffffffffffffffffffffffff021916908373ffffffffffffffffffffffffffffffffffffffff16021790555060008160020160146101000a81548160ff0219169083151502179055506000816003018190555050505050565b60025481565b606060008060008060006006600088815260200190815260200160002090508060000181600101548260020160009054906101000a900473ffffffffffffffffffffffffffffffffffffffff168360020160149054906101000a900460ff16846003015484805461076c90611060565b80601f016020809104026020016040519081016040528092919081815260200182805461079890611060565b80156107e55780601f106107ba576101008083540402835291602001916107e5565b820191906000526020600020905b8154815290600101906020018083116107c857829003601f168201915b50505050509450955095509550955095505091939590929450565b600254341015610845576040517f08c379a000000000000000000000000000000000000000000000000000000000815260040161083c906113a3565b60405180910390fd5b6001600360003373ffffffffffffffffffffffffffffffffffffffff1673ffffffffffffffffffffffffffffffffffffffff16815260200190815260200160002060006101000a81548160ff021916908315150217905550600460008154809291906108b090611091565b9190505550565b6000600660008381526020019081526020016000209050600360003373ffffffffffffffffffffffffffffffffffffffff1673ffffffffffffffffffffffffffffffffffffffff16815260200190815260200160002060009054906101000a900460ff1661092457600080fd5b8060040160003373ffffffffffffffffffffffffffffffffffffffff1673ffffffffffffffffffffffffffffffffffffffff16815260200190815260200160002060009054906101000a900460ff161561097d57600080fd5b60018160040160003373ffffffffffffffffffffffffffffffffffffffff1673ffffffffffffffffffffffffffffffffffffffff16815260200190815260200160002060006101000a81548160ff0219169083151502179055508060030160008154809291906109ec90611091565b91905055505050565b6000604051905090565b600080fd5b600080fd5b6000819050919050565b610a1c81610a09565b8114610a2757600080fd5b50565b600081359050610a3981610a13565b92915050565b600060208284031215610a5557610a546109ff565b5b6000610a6384828501610a2a565b91505092915050565b600073ffffffffffffffffffffffffffffffffffffffff82169050919050565b6000610a9782610a6c565b9050919050565b610aa781610a8c565b8114610ab257600080fd5b50565b600081359050610ac481610a9e565b92915050565b600060208284031215610ae057610adf6109ff565b5b6000610aee84828501610ab5565b91505092915050565b60008115159050919050565b610b0c81610af7565b82525050565b6000602082019050610b276000830184610b03565b92915050565b610b3681610a09565b82525050565b6000602082019050610b516000830184610b2d565b92915050565b610b6081610a8c565b82525050565b600060a082019050610b7b6000830188610b2d565b610b886020830187610b2d565b610b956040830186610b2d565b610ba26060830185610b2d565b610baf6080830184610b57565b9695505050505050565b6000602082019050610bce6000830184610b57565b92915050565b600081519050919050565b600082825260208201905092915050565b60005b83811015610c0e578082015181840152602081019050610bf3565b60008484015250505050565b6000601f19601f8301169050919050565b6000610c3682610bd4565b610c408185610bdf565b9350610c50818560208601610bf0565b610c5981610c1a565b840191505092915050565b60006020820190508181036000830152610c7e8184610c2b565b905092915050565b600080fd5b600080fd5b7f4e487b7100000000000000000000000000000000000000000000000000000000600052604160045260246000fd5b610cc882610c1a565b810181811067ffffffffffffffff82111715610ce757610ce6610c90565b5b80604052505050565b6000610cfa6109f5565b9050610d068282610cbf565b919050565b600067ffffffffffffffff821115610d2657610d25610c90565b5b610d2f82610c1a565b9050602081019050919050565b82818337600083830152505050565b6000610d5e610d5984610d0b565b610cf0565b905082815260208101848484011115610d7a57610d79610c8b565b5b610d85848285610d3c565b509392505050565b600082601f830112610da257610da1610c86565b5b8135610db2848260208601610d4b565b91505092915050565b600080600060608486031215610dd457610dd36109ff565b5b600084013567ffffffffffffffff811115610df257610df1610a04565b5b610dfe86828701610d8d565b9350506020610e0f86828701610a2a565b9250506040610e2086828701610ab5565b9150509250925092565b600060a0820190508181036000830152610e448188610c2b565b9050610e536020830187610b2d565b610e606040830186610b57565b610e6d6060830185610b03565b610e7a6080830184610b2d565b9695505050505050565b7f596f7520617265206e6f7420746865206d616e61676572000000000000000000600082015250565b6000610eba601783610bdf565b9150610ec582610e84565b602082019050919050565b60006020820190508181036000830152610ee981610ead565b9050919050565b7f4e487b7100000000000000000000000000000000000000000000000000000000600052601260045260246000fd5b7f4e487b7100000000000000000000000000000000000000000000000000000000600052601160045260246000fd5b6000610f5982610a09565b9150610f6483610a09565b925082610f7457610f73610ef0565b5b828204905092915050565b600081905092915050565b50565b6000610f9a600083610f7f565b9150610fa582610f8a565b600082019050919050565b6000610fbb82610f8d565b9150819050919050565b7f4661696c656420746f2073656e64204574686572000000000000000000000000600082015250565b6000610ffb601483610bdf565b915061100682610fc5565b602082019050919050565b6000602082019050818103600083015261102a81610fee565b9050919050565b7f4e487b7100000000000000000000000000000000000000000000000000000000600052602260045260246000fd5b6000600282049050600182168061107857607f821691505b60208210810361108b5761108a611031565b5b50919050565b600061109c82610a09565b91507fffffffffffffffffffffffffffffffffffffffffffffffffffffffffffffffff82036110ce576110cd610f1f565b5b600182019050919050565b60008190508160005260206000209050919050565b60006020601f8301049050919050565b600082821b905092915050565b60006008830261113b7fffffffffffffffffffffffffffffffffffffffffffffffffffffffffffffffff826110fe565b61114586836110fe565b95508019841693508086168417925050509392505050565b6000819050919050565b600061118261117d61117884610a09565b61115d565b610a09565b9050919050565b6000819050919050565b61119c83611167565b6111b06111a882611189565b84845461110b565b825550505050565b600090565b6111c56111b8565b6111d0818484611193565b505050565b5b818110156111f4576111e96000826111bd565b6001810190506111d6565b5050565b601f8211156112395761120a816110d9565b611213846110ee565b81016020851015611222578190505b61123661122e856110ee565b8301826111d5565b50505b505050565b600082821c905092915050565b600061125c6000198460080261123e565b1980831691505092915050565b6000611275838361124b565b9150826002028217905092915050565b61128e82610bd4565b67ffffffffffffffff8111156112a7576112a6610c90565b5b6112b18254611060565b6112bc8282856111f8565b600060209050601f8311600181146112ef57600084156112dd578287015190505b6112e78582611269565b86555061134f565b601f1984166112fd866110d9565b60005b8281101561132557848901518255600182019150602085019450602081019050611300565b86831015611342578489015161133e601f89168261124b565b8355505b6001600288020188555050505b505050505050565b7f54686520636f6e747269627574696f6e20697320746f6f206c65737300000000600082015250565b600061138d601c83610bdf565b915061139882611357565b602082019050919050565b600060208201905081810360008301526113bc81611380565b905091905056fea2646970667358221220255fd0f835f98b1d79e8e366b83f89f1c372c88becfc8d0db462b559badb1da064736f6c63430008110033",
  "immutableReferences": {},
  "source": "//SPDX-License-Identifier: MIT\npragma solidity ^0.8.17;\n\ncontract Campaign {\n    address public manager;\n    string public title;\n    uint public minimumContribution;\n    mapping(address => bool) public approvers;\n    uint public approversCount;\n\n    struct Request {\n        string description;\n        uint value;\n        address recipient;\n        bool complete;\n        uint approvalCount;\n        mapping(address => bool) approvals;\n    }\n    uint numRequests;\n    mapping(uint => Request) requests;\n\n    constructor(uint _minimum, address _manager, string memory _title) {\n        manager = _manager;\n        minimumContribution = _minimum;\n        title = _title;\n    }\n\n    modifier restricted() {\n        require(msg.sender == manager, \"You are not the manager\");\n        _;\n    }\n\n    function contribute() public payable {\n        require(\n            msg.value >= minimumContribution,\n            \"The contribution is too less\"\n        );\n        approvers[msg.sender] = true;\n        approversCount++;\n    }\n\n    function createRequest(\n        string memory _description,\n        uint _value,\n        address _recipient\n    ) public restricted {\n        Request storage r = requests[numRequests++];\n        r.description = _description;\n        r.value = _value;\n        r.recipient = _recipient;\n        r.complete = false;\n        r.approvalCount = 0;\n    }\n\n    function approveRequest(uint _requestId) public {\n        Request storage newReq = requests[_requestId];\n\n        require(approvers[msg.sender]);\n        require(!newReq.approvals[msg.sender]);\n\n        newReq.approvals[msg.sender] = true;\n        newReq.approvalCount++;\n    }\n\n    function finalizeRequest(uint _requestId) public restricted {\n        Request storage newReq = requests[_requestId];\n\n        require(newReq.approvalCount > (approversCount / 2));\n        require(!newReq.complete);\n\n        (bool sent, ) = payable(address(newReq.recipient)).call{\n            value: newReq.value\n        }(\"\");\n        require(sent, \"Failed to send Ether\");\n        newReq.complete = true;\n    }\n\n    function getSummary()\n        public\n        view\n        returns (uint, uint, uint, uint, address)\n    {\n        return (\n            minimumContribution,\n            address(this).balance,\n            numRequests,\n            approversCount,\n            manager\n        );\n    }\n\n    function getRequestsCount() public view returns (uint) {\n        return numRequests;\n    }\n\n    function getRequest(\n        uint _requestId\n    ) public view returns (string memory, uint, address, bool, uint) {\n        Request storage newReq = requests[_requestId];\n        return (\n            newReq.description,\n            newReq.value,\n            newReq.recipient,\n            newReq.complete,\n            newReq.approvalCount\n        );\n    }\n}\n",
  "sourcePath": "/Users/rakshith/pes/pesuio/class_project/src/ethereum/contracts/Campaign.sol",
  "compiler": {
    "name": "solc",
    "version": "0.8.17+commit.8df45f5f.Emscripten.clang"
  },
  "schemaVersion": "3.4.11",
  "updatedAt": "2023-04-05T11:12:16.185Z",
  "devdoc": {
    "kind": "dev",
    "methods": {},
    "version": 1
  },
  "userdoc": {
    "kind": "user",
    "methods": {},
    "version": 1
  }
}