{
  "contractName": "Factory",
  "abi": [
    {
      "inputs": [
        {
          "internalType": "uint256",
          "name": "",
          "type": "uint256"
        }
      ],
      "name": "campaigns",
      "outputs": [
        {
          "internalType": "address",
          "name": "deployedAddress",
          "type": "address"
        },
        {
          "internalType": "string",
          "name": "title",
          "type": "string"
        }
      ],
      "stateMutability": "view",
      "type": "function",
      "constant": true
    },
    {
      "inputs": [
        {
          "internalType": "uint256",
          "name": "_minimum",
          "type": "uint256"
        },
        {
          "internalType": "string",
          "name": "_title",
          "type": "string"
        }
      ],
      "name": "createCampaign",
      "outputs": [],
      "stateMutability": "nonpayable",
      "type": "function"
    },
    {
      "inputs": [],
      "name": "getCampaigns",
      "outputs": [
        {
          "components": [
            {
              "internalType": "address",
              "name": "deployedAddress",
              "type": "address"
            },
            {
              "internalType": "string",
              "name": "title",
              "type": "string"
            }
          ],
          "internalType": "struct Factory.CampaignSummary[]",
          "name": "",
          "type": "tuple[]"
        }
      ],
      "stateMutability": "view",
      "type": "function",
      "constant": true
    }
  ],
  "bytecode": "0x608060405234801561001057600080fd5b50612708806100206000396000f3fe60806040523480156200001157600080fd5b5060043610620000465760003560e01c8063141961bc146200004b5780634220d6561462000082578063a6b0363314620000a2575b600080fd5b62000069600480360381019062000063919062000454565b620000c4565b6040516200007992919062000565565b60405180910390f35b620000a060048036038101906200009a9190620006ea565b620001a9565b005b620000ac620002a6565b604051620000bb9190620008c4565b60405180910390f35b60008181548110620000d557600080fd5b90600052602060002090600202016000915090508060000160009054906101000a900473ffffffffffffffffffffffffffffffffffffffff1690806001018054620001209062000917565b80601f01602080910402602001604051908101604052809291908181526020018280546200014e9062000917565b80156200019f5780601f1062000173576101008083540402835291602001916200019f565b820191906000526020600020905b8154815290600101906020018083116200018157829003601f168201915b5050505050905082565b6000823383604051620001bc90620003f7565b620001ca939291906200095d565b604051809103906000f080158015620001e7573d6000803e3d6000fd5b509050600060405180604001604052808373ffffffffffffffffffffffffffffffffffffffff16815260200184815250908060018154018082558091505060019003906000526020600020906002020160009091909190915060008201518160000160006101000a81548173ffffffffffffffffffffffffffffffffffffffff021916908373ffffffffffffffffffffffffffffffffffffffff16021790555060208201518160010190816200029e919062000b73565b505050505050565b60606000805480602002602001604051908101604052809291908181526020016000905b82821015620003ee57838290600052602060002090600202016040518060400160405290816000820160009054906101000a900473ffffffffffffffffffffffffffffffffffffffff1673ffffffffffffffffffffffffffffffffffffffff1673ffffffffffffffffffffffffffffffffffffffff168152602001600182018054620003569062000917565b80601f0160208091040260200160405190810160405280929190818152602001828054620003849062000917565b8015620003d55780601f10620003a957610100808354040283529160200191620003d5565b820191906000526020600020905b815481529060010190602001808311620003b757829003601f168201915b50505050508152505081526020019060010190620002ca565b50505050905090565b611a788062000c5b83390190565b6000604051905090565b600080fd5b600080fd5b6000819050919050565b6200042e8162000419565b81146200043a57600080fd5b50565b6000813590506200044e8162000423565b92915050565b6000602082840312156200046d576200046c6200040f565b5b60006200047d848285016200043d565b91505092915050565b600073ffffffffffffffffffffffffffffffffffffffff82169050919050565b6000620004b38262000486565b9050919050565b620004c581620004a6565b82525050565b600081519050919050565b600082825260208201905092915050565b60005b8381101562000507578082015181840152602081019050620004ea565b60008484015250505050565b6000601f19601f8301169050919050565b60006200053182620004cb565b6200053d8185620004d6565b93506200054f818560208601620004e7565b6200055a8162000513565b840191505092915050565b60006040820190506200057c6000830185620004ba565b818103602083015262000590818462000524565b90509392505050565b600080fd5b600080fd5b7f4e487b7100000000000000000000000000000000000000000000000000000000600052604160045260246000fd5b620005dd8262000513565b810181811067ffffffffffffffff82111715620005ff57620005fe620005a3565b5b80604052505050565b60006200061462000405565b9050620006228282620005d2565b919050565b600067ffffffffffffffff821115620006455762000644620005a3565b5b620006508262000513565b9050602081019050919050565b82818337600083830152505050565b6000620006836200067d8462000627565b62000608565b905082815260208101848484011115620006a257620006a16200059e565b5b620006af8482856200065d565b509392505050565b600082601f830112620006cf57620006ce62000599565b5b8135620006e18482602086016200066c565b91505092915050565b600080604083850312156200070457620007036200040f565b5b600062000714858286016200043d565b925050602083013567ffffffffffffffff81111562000738576200073762000414565b5b6200074685828601620006b7565b9150509250929050565b600081519050919050565b600082825260208201905092915050565b6000819050602082019050919050565b6200078781620004a6565b82525050565b600082825260208201905092915050565b6000620007ab82620004cb565b620007b781856200078d565b9350620007c9818560208601620004e7565b620007d48162000513565b840191505092915050565b6000604083016000830151620007f960008601826200077c565b50602083015184820360208601526200081382826200079e565b9150508091505092915050565b60006200082e8383620007df565b905092915050565b6000602082019050919050565b6000620008508262000750565b6200085c81856200075b565b93508360208202850162000870856200076c565b8060005b85811015620008b2578484038952815162000890858262000820565b94506200089d8362000836565b925060208a0199505060018101905062000874565b50829750879550505050505092915050565b60006020820190508181036000830152620008e0818462000843565b905092915050565b7f4e487b7100000000000000000000000000000000000000000000000000000000600052602260045260246000fd5b600060028204905060018216806200093057607f821691505b602082108103620009465762000945620008e8565b5b50919050565b620009578162000419565b82525050565b60006060820190506200097460008301866200094c565b620009836020830185620004ba565b818103604083015262000997818462000524565b9050949350505050565b60008190508160005260206000209050919050565b60006020601f8301049050919050565b600082821b905092915050565b60006008830262000a057fffffffffffffffffffffffffffffffffffffffffffffffffffffffffffffffff82620009c6565b62000a118683620009c6565b95508019841693508086168417925050509392505050565b6000819050919050565b600062000a5462000a4e62000a488462000419565b62000a29565b62000419565b9050919050565b6000819050919050565b62000a708362000a33565b62000a8862000a7f8262000a5b565b848454620009d3565b825550505050565b600090565b62000a9f62000a90565b62000aac81848462000a65565b505050565b5b8181101562000ad45762000ac860008262000a95565b60018101905062000ab2565b5050565b601f82111562000b235762000aed81620009a1565b62000af884620009b6565b8101602085101562000b08578190505b62000b2062000b1785620009b6565b83018262000ab1565b50505b505050565b600082821c905092915050565b600062000b486000198460080262000b28565b1980831691505092915050565b600062000b63838362000b35565b9150826002028217905092915050565b62000b7e82620004cb565b67ffffffffffffffff81111562000b9a5762000b99620005a3565b5b62000ba6825462000917565b62000bb382828562000ad8565b600060209050601f83116001811462000beb576000841562000bd6578287015190505b62000be2858262000b55565b86555062000c52565b601f19841662000bfb86620009a1565b60005b8281101562000c255784890151825560018201915060208501945060208101905062000bfe565b8683101562000c45578489015162000c41601f89168262000b35565b8355505b6001600288020188555050505b50505050505056fe60806040523480156200001157600080fd5b5060405162001a7838038062001a788339818101604052810190620000379190620002cc565b816000806101000a81548173ffffffffffffffffffffffffffffffffffffffff021916908373ffffffffffffffffffffffffffffffffffffffff1602179055508260028190555080600190816200008f919062000588565b505050506200066f565b6000604051905090565b600080fd5b600080fd5b6000819050919050565b620000c281620000ad565b8114620000ce57600080fd5b50565b600081519050620000e281620000b7565b92915050565b600073ffffffffffffffffffffffffffffffffffffffff82169050919050565b60006200011582620000e8565b9050919050565b620001278162000108565b81146200013357600080fd5b50565b60008151905062000147816200011c565b92915050565b600080fd5b600080fd5b6000601f19601f8301169050919050565b7f4e487b7100000000000000000000000000000000000000000000000000000000600052604160045260246000fd5b620001a28262000157565b810181811067ffffffffffffffff82111715620001c457620001c362000168565b5b80604052505050565b6000620001d962000099565b9050620001e7828262000197565b919050565b600067ffffffffffffffff8211156200020a576200020962000168565b5b620002158262000157565b9050602081019050919050565b60005b838110156200024257808201518184015260208101905062000225565b60008484015250505050565b6000620002656200025f84620001ec565b620001cd565b90508281526020810184848401111562000284576200028362000152565b5b6200029184828562000222565b509392505050565b600082601f830112620002b157620002b06200014d565b5b8151620002c38482602086016200024e565b91505092915050565b600080600060608486031215620002e857620002e7620000a3565b5b6000620002f886828701620000d1565b93505060206200030b8682870162000136565b925050604084015167ffffffffffffffff8111156200032f576200032e620000a8565b5b6200033d8682870162000299565b9150509250925092565b600081519050919050565b7f4e487b7100000000000000000000000000000000000000000000000000000000600052602260045260246000fd5b600060028204905060018216806200039a57607f821691505b602082108103620003b057620003af62000352565b5b50919050565b60008190508160005260206000209050919050565b60006020601f8301049050919050565b600082821b905092915050565b6000600883026200041a7fffffffffffffffffffffffffffffffffffffffffffffffffffffffffffffffff82620003db565b620004268683620003db565b95508019841693508086168417925050509392505050565b6000819050919050565b600062000469620004636200045d84620000ad565b6200043e565b620000ad565b9050919050565b6000819050919050565b620004858362000448565b6200049d620004948262000470565b848454620003e8565b825550505050565b600090565b620004b4620004a5565b620004c18184846200047a565b505050565b5b81811015620004e957620004dd600082620004aa565b600181019050620004c7565b5050565b601f82111562000538576200050281620003b6565b6200050d84620003cb565b810160208510156200051d578190505b620005356200052c85620003cb565b830182620004c6565b50505b505050565b600082821c905092915050565b60006200055d600019846008026200053d565b1980831691505092915050565b60006200057883836200054a565b9150826002028217905092915050565b620005938262000347565b67ffffffffffffffff811115620005af57620005ae62000168565b5b620005bb825462000381565b620005c8828285620004ed565b600060209050601f831160018114620006005760008415620005eb578287015190505b620005f785826200056a565b86555062000667565b601f1984166200061086620003b6565b60005b828110156200063a5784890151825560018201915060208501945060208101905062000613565b868310156200065a578489015162000656601f8916826200054a565b8355505b6001600288020188555050505b505050505050565b6113f9806200067f6000396000f3fe6080604052600436106100a75760003560e01c806382fde0931161006457806382fde093146101c25780638a9cfd55146101ed578063937e09b114610216578063c58343ef14610241578063d7bb99ba14610282578063d7d1bbdb1461028c576100a7565b806303441006146100ac5780630a144391146100d55780633410452a146101125780634051ddac1461013d578063481c6a751461016c5780634a79d50c14610197575b600080fd5b3480156100b857600080fd5b506100d360048036038101906100ce9190610a3f565b6102b5565b005b3480156100e157600080fd5b506100fc60048036038101906100f79190610aca565b61048a565b6040516101099190610b12565b60405180910390f35b34801561011e57600080fd5b506101276104aa565b6040516101349190610b3c565b60405180910390f35b34801561014957600080fd5b506101526104b4565b604051610163959493929190610b66565b60405180910390f35b34801561017857600080fd5b506101816104f8565b60405161018e9190610bb9565b60405180910390f35b3480156101a357600080fd5b506101ac61051c565b6040516101b99190610c64565b60405180910390f35b3480156101ce57600080fd5b506101d76105aa565b6040516101e49190610b3c565b60405180910390f35b3480156101f957600080fd5b50610214600480360381019061020f9190610dbb565b6105b0565b005b34801561022257600080fd5b5061022b6106f6565b6040516102389190610b3c565b60405180910390f35b34801561024d57600080fd5b5061026860048036038101906102639190610a3f565b6106fc565b604051610279959493929190610e2a565b60405180910390f35b61028a610800565b005b34801561029857600080fd5b506102b360048036038101906102ae9190610a3f565b6108b7565b005b60008054906101000a900473ffffffffffffffffffffffffffffffffffffffff1673ffffffffffffffffffffffffffffffffffffffff163373ffffffffffffffffffffffffffffffffffffffff1614610343576040517f08c379a000000000000000000000000000000000000000000000000000000000815260040161033a90610ed0565b60405180910390fd5b600060066000838152602001908152602001600020905060026004546103699190610f4e565b81600301541161037857600080fd5b8060020160149054906101000a900460ff161561039457600080fd5b60008160020160009054906101000a900473ffffffffffffffffffffffffffffffffffffffff1673ffffffffffffffffffffffffffffffffffffffff1682600101546040516103e290610fb0565b60006040518083038185875af1925050503d806000811461041f576040519150601f19603f3d011682016040523d82523d6000602084013e610424565b606091505b5050905080610468576040517f08c379a000000000000000000000000000000000000000000000000000000000815260040161045f90611011565b60405180910390fd5b60018260020160146101000a81548160ff021916908315150217905550505050565b60036020528060005260406000206000915054906101000a900460ff1681565b6000600554905090565b60008060008060006002544760055460045460008054906101000a900473ffffffffffffffffffffffffffffffffffffffff16945094509450945094509091929394565b60008054906101000a900473ffffffffffffffffffffffffffffffffffffffff1681565b6001805461052990611060565b80601f016020809104026020016040519081016040528092919081815260200182805461055590611060565b80156105a25780601f10610577576101008083540402835291602001916105a2565b820191906000526020600020905b81548152906001019060200180831161058557829003601f168201915b505050505081565b60045481565b60008054906101000a900473ffffffffffffffffffffffffffffffffffffffff1673ffffffffffffffffffffffffffffffffffffffff163373ffffffffffffffffffffffffffffffffffffffff161461063e576040517f08c379a000000000000000000000000000000000000000000000000000000000815260040161063590610ed0565b60405180910390fd5b6000600660006005600081548092919061065790611091565b91905055815260200190815260200160002090508381600001908161067c9190611285565b50828160010181905550818160020160006101000a81548173ffffffffffffffffffffffffffffffffffffffff021916908373ffffffffffffffffffffffffffffffffffffffff16021790555060008160020160146101000a81548160ff0219169083151502179055506000816003018190555050505050565b60025481565b606060008060008060006006600088815260200190815260200160002090508060000181600101548260020160009054906101000a900473ffffffffffffffffffffffffffffffffffffffff168360020160149054906101000a900460ff16846003015484805461076c90611060565b80601f016020809104026020016040519081016040528092919081815260200182805461079890611060565b80156107e55780601f106107ba576101008083540402835291602001916107e5565b820191906000526020600020905b8154815290600101906020018083116107c857829003601f168201915b50505050509450955095509550955095505091939590929450565b600254341015610845576040517f08c379a000000000000000000000000000000000000000000000000000000000815260040161083c906113a3565b60405180910390fd5b6001600360003373ffffffffffffffffffffffffffffffffffffffff1673ffffffffffffffffffffffffffffffffffffffff16815260200190815260200160002060006101000a81548160ff021916908315150217905550600460008154809291906108b090611091565b9190505550565b6000600660008381526020019081526020016000209050600360003373ffffffffffffffffffffffffffffffffffffffff1673ffffffffffffffffffffffffffffffffffffffff16815260200190815260200160002060009054906101000a900460ff1661092457600080fd5b8060040160003373ffffffffffffffffffffffffffffffffffffffff1673ffffffffffffffffffffffffffffffffffffffff16815260200190815260200160002060009054906101000a900460ff161561097d57600080fd5b60018160040160003373ffffffffffffffffffffffffffffffffffffffff1673ffffffffffffffffffffffffffffffffffffffff16815260200190815260200160002060006101000a81548160ff0219169083151502179055508060030160008154809291906109ec90611091565b91905055505050565b6000604051905090565b600080fd5b600080fd5b6000819050919050565b610a1c81610a09565b8114610a2757600080fd5b50565b600081359050610a3981610a13565b92915050565b600060208284031215610a5557610a546109ff565b5b6000610a6384828501610a2a565b91505092915050565b600073ffffffffffffffffffffffffffffffffffffffff82169050919050565b6000610a9782610a6c565b9050919050565b610aa781610a8c565b8114610ab257600080fd5b50565b600081359050610ac481610a9e565b92915050565b600060208284031215610ae057610adf6109ff565b5b6000610aee84828501610ab5565b91505092915050565b60008115159050919050565b610b0c81610af7565b82525050565b6000602082019050610b276000830184610b03565b92915050565b610b3681610a09565b82525050565b6000602082019050610b516000830184610b2d565b92915050565b610b6081610a8c565b82525050565b600060a082019050610b7b6000830188610b2d565b610b886020830187610b2d565b610b956040830186610b2d565b610ba26060830185610b2d565b610baf6080830184610b57565b9695505050505050565b6000602082019050610bce6000830184610b57565b92915050565b600081519050919050565b600082825260208201905092915050565b60005b83811015610c0e578082015181840152602081019050610bf3565b60008484015250505050565b6000601f19601f8301169050919050565b6000610c3682610bd4565b610c408185610bdf565b9350610c50818560208601610bf0565b610c5981610c1a565b840191505092915050565b60006020820190508181036000830152610c7e8184610c2b565b905092915050565b600080fd5b600080fd5b7f4e487b7100000000000000000000000000000000000000000000000000000000600052604160045260246000fd5b610cc882610c1a565b810181811067ffffffffffffffff82111715610ce757610ce6610c90565b5b80604052505050565b6000610cfa6109f5565b9050610d068282610cbf565b919050565b600067ffffffffffffffff821115610d2657610d25610c90565b5b610d2f82610c1a565b9050602081019050919050565b82818337600083830152505050565b6000610d5e610d5984610d0b565b610cf0565b905082815260208101848484011115610d7a57610d79610c8b565b5b610d85848285610d3c565b509392505050565b600082601f830112610da257610da1610c86565b5b8135610db2848260208601610d4b565b91505092915050565b600080600060608486031215610dd457610dd36109ff565b5b600084013567ffffffffffffffff811115610df257610df1610a04565b5b610dfe86828701610d8d565b9350506020610e0f86828701610a2a565b9250506040610e2086828701610ab5565b9150509250925092565b600060a0820190508181036000830152610e448188610c2b565b9050610e536020830187610b2d565b610e606040830186610b57565b610e6d6060830185610b03565b610e7a6080830184610b2d565b9695505050505050565b7f596f7520617265206e6f7420746865206d616e61676572000000000000000000600082015250565b6000610eba601783610bdf565b9150610ec582610e84565b602082019050919050565b60006020820190508181036000830152610ee981610ead565b9050919050565b7f4e487b7100000000000000000000000000000000000000000000000000000000600052601260045260246000fd5b7f4e487b7100000000000000000000000000000000000000000000000000000000600052601160045260246000fd5b6000610f5982610a09565b9150610f6483610a09565b925082610f7457610f73610ef0565b5b828204905092915050565b600081905092915050565b50565b6000610f9a600083610f7f565b9150610fa582610f8a565b600082019050919050565b6000610fbb82610f8d565b9150819050919050565b7f4661696c656420746f2073656e64204574686572000000000000000000000000600082015250565b6000610ffb601483610bdf565b915061100682610fc5565b602082019050919050565b6000602082019050818103600083015261102a81610fee565b9050919050565b7f4e487b7100000000000000000000000000000000000000000000000000000000600052602260045260246000fd5b6000600282049050600182168061107857607f821691505b60208210810361108b5761108a611031565b5b50919050565b600061109c82610a09565b91507fffffffffffffffffffffffffffffffffffffffffffffffffffffffffffffffff82036110ce576110cd610f1f565b5b600182019050919050565b60008190508160005260206000209050919050565b60006020601f8301049050919050565b600082821b905092915050565b60006008830261113b7fffffffffffffffffffffffffffffffffffffffffffffffffffffffffffffffff826110fe565b61114586836110fe565b95508019841693508086168417925050509392505050565b6000819050919050565b600061118261117d61117884610a09565b61115d565b610a09565b9050919050565b6000819050919050565b61119c83611167565b6111b06111a882611189565b84845461110b565b825550505050565b600090565b6111c56111b8565b6111d0818484611193565b505050565b5b818110156111f4576111e96000826111bd565b6001810190506111d6565b5050565b601f8211156112395761120a816110d9565b611213846110ee565b81016020851015611222578190505b61123661122e856110ee565b8301826111d5565b50505b505050565b600082821c905092915050565b600061125c6000198460080261123e565b1980831691505092915050565b6000611275838361124b565b9150826002028217905092915050565b61128e82610bd4565b67ffffffffffffffff8111156112a7576112a6610c90565b5b6112b18254611060565b6112bc8282856111f8565b600060209050601f8311600181146112ef57600084156112dd578287015190505b6112e78582611269565b86555061134f565b601f1984166112fd866110d9565b60005b8281101561132557848901518255600182019150602085019450602081019050611300565b86831015611342578489015161133e601f89168261124b565b8355505b6001600288020188555050505b505050505050565b7f54686520636f6e747269627574696f6e20697320746f6f206c65737300000000600082015250565b600061138d601c83610bdf565b915061139882611357565b602082019050919050565b600060208201905081810360008301526113bc81611380565b905091905056fea2646970667358221220255fd0f835f98b1d79e8e366b83f89f1c372c88becfc8d0db462b559badb1da064736f6c63430008110033a264697066735822122092881b33e4cc3dba7d114b476cec01a9b4c7a1df4cb3369d0c7a48c0674db8cf64736f6c63430008110033",
  "immutableReferences": {},
  "source": "// SPDX-License-Identifier: MIT\n\npragma solidity ^0.8.17;\n\nimport \"./Campaign.sol\";\n\ncontract Factory {\n    struct CampaignSummary {\n        address deployedAddress;\n        string title;\n    }\n\n    CampaignSummary[] public campaigns;\n\n    function createCampaign(uint _minimum, string memory _title) public {\n        address newCampaignAddress = address(\n            new Campaign(_minimum, msg.sender, _title)\n        );\n        campaigns.push(CampaignSummary(newCampaignAddress, _title));\n    }\n\n    function getCampaigns() public view returns (CampaignSummary[] memory) {\n        return campaigns;\n    }\n}\n",
  "sourcePath": "/Users/rakshith/pes/pesuio/class_project/src/ethereum/contracts/Factory.sol",
  "compiler": {
    "name": "solc",
    "version": "0.8.17+commit.8df45f5f.Emscripten.clang"
  },
  "schemaVersion": "3.4.11",
  "updatedAt": "2023-04-05T11:20:40.091Z",
  "networkType": "ethereum",
  "devdoc": {
    "kind": "dev",
    "methods": {},
    "version": 1
  },
  "userdoc": {
    "kind": "user",
    "methods": {},
    "version": 1
  }
}