{
  "contractName": "Campaign",
  "abi": [
    {
      "inputs": [
        {
          "internalType": "uint256",
          "name": "_minimum",
          "type": "uint256"
        },
        {
          "internalType": "address",
          "name": "_manager",
          "type": "address"
        }
      ],
      "stateMutability": "nonpayable",
      "type": "constructor"
    },
    {
      "inputs": [
        {
          "internalType": "address",
          "name": "",
          "type": "address"
        }
      ],
      "name": "approvers",
      "outputs": [
        {
          "internalType": "bool",
          "name": "",
          "type": "bool"
        }
      ],
      "stateMutability": "view",
      "type": "function"
    },
    {
      "inputs": [],
      "name": "approversCount",
      "outputs": [
        {
          "internalType": "uint256",
          "name": "",
          "type": "uint256"
        }
      ],
      "stateMutability": "view",
      "type": "function"
    },
    {
      "inputs": [],
      "name": "manager",
      "outputs": [
        {
          "internalType": "address",
          "name": "",
          "type": "address"
        }
      ],
      "stateMutability": "view",
      "type": "function"
    },
    {
      "inputs": [],
      "name": "minimumContribution",
      "outputs": [
        {
          "internalType": "uint256",
          "name": "",
          "type": "uint256"
        }
      ],
      "stateMutability": "view",
      "type": "function"
    },
    {
      "inputs": [],
      "name": "contribute",
      "outputs": [],
      "stateMutability": "payable",
      "type": "function"
    },
    {
      "inputs": [
        {
          "internalType": "string",
          "name": "_description",
          "type": "string"
        },
        {
          "internalType": "uint256",
          "name": "_value",
          "type": "uint256"
        },
        {
          "internalType": "address",
          "name": "_recipient",
          "type": "address"
        }
      ],
      "name": "createRequest",
      "outputs": [],
      "stateMutability": "nonpayable",
      "type": "function"
    },
    {
      "inputs": [
        {
          "internalType": "uint256",
          "name": "_requestId",
          "type": "uint256"
        }
      ],
      "name": "approveRequest",
      "outputs": [],
      "stateMutability": "nonpayable",
      "type": "function"
    },
    {
      "inputs": [
        {
          "internalType": "uint256",
          "name": "_requestId",
          "type": "uint256"
        }
      ],
      "name": "finalizeRequest",
      "outputs": [],
      "stateMutability": "nonpayable",
      "type": "function"
    },
    {
      "inputs": [],
      "name": "getSummary",
      "outputs": [
        {
          "internalType": "uint256",
          "name": "",
          "type": "uint256"
        },
        {
          "internalType": "uint256",
          "name": "",
          "type": "uint256"
        },
        {
          "internalType": "uint256",
          "name": "",
          "type": "uint256"
        },
        {
          "internalType": "uint256",
          "name": "",
          "type": "uint256"
        },
        {
          "internalType": "address",
          "name": "",
          "type": "address"
        }
      ],
      "stateMutability": "view",
      "type": "function"
    },
    {
      "inputs": [],
      "name": "getRequestsCount",
      "outputs": [
        {
          "internalType": "uint256",
          "name": "",
          "type": "uint256"
        }
      ],
      "stateMutability": "view",
      "type": "function"
    },
    {
      "inputs": [
        {
          "internalType": "uint256",
          "name": "_requestId",
          "type": "uint256"
        }
      ],
      "name": "getRequest",
      "outputs": [
        {
          "internalType": "string",
          "name": "",
          "type": "string"
        },
        {
          "internalType": "uint256",
          "name": "",
          "type": "uint256"
        },
        {
          "internalType": "address",
          "name": "",
          "type": "address"
        },
        {
          "internalType": "bool",
          "name": "",
          "type": "bool"
        },
        {
          "internalType": "uint256",
          "name": "",
          "type": "uint256"
        }
      ],
      "stateMutability": "view",
      "type": "function"
    }
  ],
  "bytecode": "0x60806040523480156200001157600080fd5b50604051620014b5380380620014b583398181016040528101906200003791906200012b565b806000806101000a81548173ffffffffffffffffffffffffffffffffffffffff021916908373ffffffffffffffffffffffffffffffffffffffff16021790555081600181905550505062000172565b600080fd5b6000819050919050565b620000a0816200008b565b8114620000ac57600080fd5b50565b600081519050620000c08162000095565b92915050565b600073ffffffffffffffffffffffffffffffffffffffff82169050919050565b6000620000f382620000c6565b9050919050565b6200010581620000e6565b81146200011157600080fd5b50565b6000815190506200012581620000fa565b92915050565b6000806040838503121562000145576200014462000086565b5b60006200015585828601620000af565b9250506020620001688582860162000114565b9150509250929050565b61133380620001826000396000f3fe60806040526004361061009c5760003560e01c806382fde0931161006457806382fde0931461018c5780638a9cfd55146101b7578063937e09b1146101e0578063c58343ef1461020b578063d7bb99ba1461024c578063d7d1bbdb146102565761009c565b806303441006146100a15780630a144391146100ca5780633410452a146101075780634051ddac14610132578063481c6a7514610161575b600080fd5b3480156100ad57600080fd5b506100c860048036038101906100c3919061099b565b61027f565b005b3480156100d657600080fd5b506100f160048036038101906100ec9190610a26565b61041e565b6040516100fe9190610a6e565b60405180910390f35b34801561011357600080fd5b5061011c61043e565b6040516101299190610a98565b60405180910390f35b34801561013e57600080fd5b50610147610448565b604051610158959493929190610ac2565b60405180910390f35b34801561016d57600080fd5b5061017661048c565b6040516101839190610b15565b60405180910390f35b34801561019857600080fd5b506101a16104b0565b6040516101ae9190610a98565b60405180910390f35b3480156101c357600080fd5b506101de60048036038101906101d99190610c76565b6104b6565b005b3480156101ec57600080fd5b506101f5610652565b6040516102029190610a98565b60405180910390f35b34801561021757600080fd5b50610232600480360381019061022d919061099b565b610658565b604051610243959493929190610d64565b60405180910390f35b61025461075c565b005b34801561026257600080fd5b5061027d6004803603810190610278919061099b565b610813565b005b60008054906101000a900473ffffffffffffffffffffffffffffffffffffffff1673ffffffffffffffffffffffffffffffffffffffff163373ffffffffffffffffffffffffffffffffffffffff16146102d757600080fd5b600060056000838152602001908152602001600020905060026003546102fd9190610e1c565b81600301541161030c57600080fd5b8060020160149054906101000a900460ff161561032857600080fd5b60008160020160009054906101000a900473ffffffffffffffffffffffffffffffffffffffff1673ffffffffffffffffffffffffffffffffffffffff16826001015460405161037690610e7e565b60006040518083038185875af1925050503d80600081146103b3576040519150601f19603f3d011682016040523d82523d6000602084013e6103b8565b606091505b50509050806103fc576040517f08c379a00000000000000000000000000000000000000000000000000000000081526004016103f390610edf565b60405180910390fd5b60018260020160146101000a81548160ff021916908315150217905550505050565b60026020528060005260406000206000915054906101000a900460ff1681565b6000600454905090565b60008060008060006001544760045460035460008054906101000a900473ffffffffffffffffffffffffffffffffffffffff16945094509450945094509091929394565b60008054906101000a900473ffffffffffffffffffffffffffffffffffffffff1681565b60035481565b60008054906101000a900473ffffffffffffffffffffffffffffffffffffffff1673ffffffffffffffffffffffffffffffffffffffff163373ffffffffffffffffffffffffffffffffffffffff161461050e57600080fd5b600260003373ffffffffffffffffffffffffffffffffffffffff1673ffffffffffffffffffffffffffffffffffffffff16815260200190815260200160002060009054906101000a900460ff1661059a576040517f08c379a000000000000000000000000000000000000000000000000000000000815260040161059190610f4b565b60405180910390fd5b600060056000600460008154809291906105b390610f6b565b9190505581526020019081526020016000209050838160000190816105d891906111bf565b50828160010181905550818160020160006101000a81548173ffffffffffffffffffffffffffffffffffffffff021916908373ffffffffffffffffffffffffffffffffffffffff16021790555060008160020160146101000a81548160ff0219169083151502179055506000816003018190555050505050565b60015481565b606060008060008060006005600088815260200190815260200160002090508060000181600101548260020160009054906101000a900473ffffffffffffffffffffffffffffffffffffffff168360020160149054906101000a900460ff1684600301548480546106c890610fe2565b80601f01602080910402602001604051908101604052809291908181526020018280546106f490610fe2565b80156107415780601f1061071657610100808354040283529160200191610741565b820191906000526020600020905b81548152906001019060200180831161072457829003601f168201915b50505050509450955095509550955095505091939590929450565b6001543410156107a1576040517f08c379a0000000000000000000000000000000000000000000000000000000008152600401610798906112dd565b60405180910390fd5b6001600260003373ffffffffffffffffffffffffffffffffffffffff1673ffffffffffffffffffffffffffffffffffffffff16815260200190815260200160002060006101000a81548160ff0219169083151502179055506003600081548092919061080c90610f6b565b9190505550565b6000600560008381526020019081526020016000209050600260003373ffffffffffffffffffffffffffffffffffffffff1673ffffffffffffffffffffffffffffffffffffffff16815260200190815260200160002060009054906101000a900460ff1661088057600080fd5b8060040160003373ffffffffffffffffffffffffffffffffffffffff1673ffffffffffffffffffffffffffffffffffffffff16815260200190815260200160002060009054906101000a900460ff16156108d957600080fd5b60018160040160003373ffffffffffffffffffffffffffffffffffffffff1673ffffffffffffffffffffffffffffffffffffffff16815260200190815260200160002060006101000a81548160ff02191690831515021790555080600301600081548092919061094890610f6b565b91905055505050565b6000604051905090565b600080fd5b600080fd5b6000819050919050565b61097881610965565b811461098357600080fd5b50565b6000813590506109958161096f565b92915050565b6000602082840312156109b1576109b061095b565b5b60006109bf84828501610986565b91505092915050565b600073ffffffffffffffffffffffffffffffffffffffff82169050919050565b60006109f3826109c8565b9050919050565b610a03816109e8565b8114610a0e57600080fd5b50565b600081359050610a20816109fa565b92915050565b600060208284031215610a3c57610a3b61095b565b5b6000610a4a84828501610a11565b91505092915050565b60008115159050919050565b610a6881610a53565b82525050565b6000602082019050610a836000830184610a5f565b92915050565b610a9281610965565b82525050565b6000602082019050610aad6000830184610a89565b92915050565b610abc816109e8565b82525050565b600060a082019050610ad76000830188610a89565b610ae46020830187610a89565b610af16040830186610a89565b610afe6060830185610a89565b610b0b6080830184610ab3565b9695505050505050565b6000602082019050610b2a6000830184610ab3565b92915050565b600080fd5b600080fd5b6000601f19601f8301169050919050565b7f4e487b7100000000000000000000000000000000000000000000000000000000600052604160045260246000fd5b610b8382610b3a565b810181811067ffffffffffffffff82111715610ba257610ba1610b4b565b5b80604052505050565b6000610bb5610951565b9050610bc18282610b7a565b919050565b600067ffffffffffffffff821115610be157610be0610b4b565b5b610bea82610b3a565b9050602081019050919050565b82818337600083830152505050565b6000610c19610c1484610bc6565b610bab565b905082815260208101848484011115610c3557610c34610b35565b5b610c40848285610bf7565b509392505050565b600082601f830112610c5d57610c5c610b30565b5b8135610c6d848260208601610c06565b91505092915050565b600080600060608486031215610c8f57610c8e61095b565b5b600084013567ffffffffffffffff811115610cad57610cac610960565b5b610cb986828701610c48565b9350506020610cca86828701610986565b9250506040610cdb86828701610a11565b9150509250925092565b600081519050919050565b600082825260208201905092915050565b60005b83811015610d1f578082015181840152602081019050610d04565b60008484015250505050565b6000610d3682610ce5565b610d408185610cf0565b9350610d50818560208601610d01565b610d5981610b3a565b840191505092915050565b600060a0820190508181036000830152610d7e8188610d2b565b9050610d8d6020830187610a89565b610d9a6040830186610ab3565b610da76060830185610a5f565b610db46080830184610a89565b9695505050505050565b7f4e487b7100000000000000000000000000000000000000000000000000000000600052601260045260246000fd5b7f4e487b7100000000000000000000000000000000000000000000000000000000600052601160045260246000fd5b6000610e2782610965565b9150610e3283610965565b925082610e4257610e41610dbe565b5b828204905092915050565b600081905092915050565b50565b6000610e68600083610e4d565b9150610e7382610e58565b600082019050919050565b6000610e8982610e5b565b9150819050919050565b7f4661696c656420746f2073656e64204574686572000000000000000000000000600082015250565b6000610ec9601483610cf0565b9150610ed482610e93565b602082019050919050565b60006020820190508181036000830152610ef881610ebc565b9050919050565b7f4f6e6c79206d616e616765722063616e20637265617465207265717565737473600082015250565b6000610f35602083610cf0565b9150610f4082610eff565b602082019050919050565b60006020820190508181036000830152610f6481610f28565b9050919050565b6000610f7682610965565b91507fffffffffffffffffffffffffffffffffffffffffffffffffffffffffffffffff8203610fa857610fa7610ded565b5b600182019050919050565b7f4e487b7100000000000000000000000000000000000000000000000000000000600052602260045260246000fd5b60006002820490506001821680610ffa57607f821691505b60208210810361100d5761100c610fb3565b5b50919050565b60008190508160005260206000209050919050565b60006020601f8301049050919050565b600082821b905092915050565b6000600883026110757fffffffffffffffffffffffffffffffffffffffffffffffffffffffffffffffff82611038565b61107f8683611038565b95508019841693508086168417925050509392505050565b6000819050919050565b60006110bc6110b76110b284610965565b611097565b610965565b9050919050565b6000819050919050565b6110d6836110a1565b6110ea6110e2826110c3565b848454611045565b825550505050565b600090565b6110ff6110f2565b61110a8184846110cd565b505050565b5b8181101561112e576111236000826110f7565b600181019050611110565b5050565b601f8211156111735761114481611013565b61114d84611028565b8101602085101561115c578190505b61117061116885611028565b83018261110f565b50505b505050565b600082821c905092915050565b600061119660001984600802611178565b1980831691505092915050565b60006111af8383611185565b9150826002028217905092915050565b6111c882610ce5565b67ffffffffffffffff8111156111e1576111e0610b4b565b5b6111eb8254610fe2565b6111f6828285611132565b600060209050601f8311600181146112295760008415611217578287015190505b61122185826111a3565b865550611289565b601f19841661123786611013565b60005b8281101561125f5784890151825560018201915060208501945060208101905061123a565b8683101561127c5784890151611278601f891682611185565b8355505b6001600288020188555050505b505050505050565b7f54686520636f6e747269627574696f6e20697320746f6f206c65737300000000600082015250565b60006112c7601c83610cf0565b91506112d282611291565b602082019050919050565b600060208201905081810360008301526112f6816112ba565b905091905056fea26469706673582212203fa00a8cfba2436519d04b6c3d0b69d86b888a7188a20c7390fac87f482965f764736f6c63430008110033",
  "immutableReferences": {},
  "source": "//SPDX-License-Identifier: MIT\npragma solidity ^0.8.17;\n\ncontract Campaign {\n    address public manager;\n    uint public minimumContribution;\n    mapping(address => bool) public approvers;\n    uint public approversCount;\n\n    struct Request {\n        string description;\n        uint value;\n        address recipient;\n        bool complete;\n        uint approvalCount;\n        mapping(address => bool) approvals;\n    }\n    uint numRequests;\n    mapping(uint => Request) requests;\n\n    constructor(uint _minimum, address _manager) {\n        manager = _manager;\n        minimumContribution = _minimum;\n    }\n\n    modifier restricted() {\n        require(msg.sender == manager);\n        _;\n    }\n\n    function contribute() public payable {\n        require(\n            msg.value >= minimumContribution,\n            \"The contribution is too less\"\n        );\n        approvers[msg.sender] = true;\n        approversCount++;\n    }\n\n    function createRequest(\n        string memory _description,\n        uint _value,\n        address _recipient\n    ) public restricted {\n        require(approvers[msg.sender], \"Only manager can create requests\");\n        Request storage r = requests[numRequests++];\n        r.description = _description;\n        r.value = _value;\n        r.recipient = _recipient;\n        r.complete = false;\n        r.approvalCount = 0;\n    }\n\n    function approveRequest(uint _requestId) public {\n        Request storage newReq = requests[_requestId];\n\n        require(approvers[msg.sender]);\n        require(!newReq.approvals[msg.sender]);\n\n        newReq.approvals[msg.sender] = true;\n        newReq.approvalCount++;\n    }\n\n    function finalizeRequest(uint _requestId) public restricted {\n        Request storage newReq = requests[_requestId];\n\n        require(newReq.approvalCount > (approversCount / 2));\n        require(!newReq.complete);\n\n        (bool sent, ) = payable(address(newReq.recipient)).call{\n            value: newReq.value\n        }(\"\");\n        require(sent, \"Failed to send Ether\");\n        newReq.complete = true;\n    }\n\n    function getSummary()\n        public\n        view\n        returns (uint, uint, uint, uint, address)\n    {\n        return (\n            minimumContribution,\n            address(this).balance,\n            numRequests,\n            approversCount,\n            manager\n        );\n    }\n\n    function getRequestsCount() public view returns (uint) {\n        return numRequests;\n    }\n\n    function getRequest(\n        uint _requestId\n    ) public view returns (string memory, uint, address, bool, uint) {\n        Request storage newReq = requests[_requestId];\n        return (\n            newReq.description,\n            newReq.value,\n            newReq.recipient,\n            newReq.complete,\n            newReq.approvalCount\n        );\n    }\n}\n",
  "sourcePath": "/Users/rakshith/pes/pesuio/crowdfund/ethereum/contracts/Campaign.sol",
  "compiler": {
    "name": "solc",
    "version": "0.8.17+commit.8df45f5f.Emscripten.clang"
  },
  "schemaVersion": "3.4.11",
  "updatedAt": "2023-03-28T09:11:44.938Z",
  "devdoc": {
    "kind": "dev",
    "methods": {},
    "version": 1
  },
  "userdoc": {
    "kind": "user",
    "methods": {},
    "version": 1
  }
}