{
  "contractName": "Campaign",
  "abi": [
    {
      "inputs": [
        {
          "internalType": "uint256",
          "name": "_minimum",
          "type": "uint256"
        },
        {
          "internalType": "address",
          "name": "_manager",
          "type": "address"
        },
        {
          "internalType": "string",
          "name": "_title",
          "type": "string"
        }
      ],
      "stateMutability": "nonpayable",
      "type": "constructor"
    },
    {
      "inputs": [
        {
          "internalType": "address",
          "name": "",
          "type": "address"
        }
      ],
      "name": "approvers",
      "outputs": [
        {
          "internalType": "bool",
          "name": "",
          "type": "bool"
        }
      ],
      "stateMutability": "view",
      "type": "function"
    },
    {
      "inputs": [],
      "name": "approversCount",
      "outputs": [
        {
          "internalType": "uint256",
          "name": "",
          "type": "uint256"
        }
      ],
      "stateMutability": "view",
      "type": "function"
    },
    {
      "inputs": [],
      "name": "manager",
      "outputs": [
        {
          "internalType": "address",
          "name": "",
          "type": "address"
        }
      ],
      "stateMutability": "view",
      "type": "function"
    },
    {
      "inputs": [],
      "name": "minimumContribution",
      "outputs": [
        {
          "internalType": "uint256",
          "name": "",
          "type": "uint256"
        }
      ],
      "stateMutability": "view",
      "type": "function"
    },
    {
      "inputs": [],
      "name": "title",
      "outputs": [
        {
          "internalType": "string",
          "name": "",
          "type": "string"
        }
      ],
      "stateMutability": "view",
      "type": "function"
    },
    {
      "inputs": [],
      "name": "contribute",
      "outputs": [],
      "stateMutability": "payable",
      "type": "function"
    },
    {
      "inputs": [
        {
          "internalType": "string",
          "name": "_description",
          "type": "string"
        },
        {
          "internalType": "uint256",
          "name": "_value",
          "type": "uint256"
        },
        {
          "internalType": "address",
          "name": "_recipient",
          "type": "address"
        }
      ],
      "name": "createRequest",
      "outputs": [],
      "stateMutability": "nonpayable",
      "type": "function"
    },
    {
      "inputs": [
        {
          "internalType": "uint256",
          "name": "_requestId",
          "type": "uint256"
        }
      ],
      "name": "approveRequest",
      "outputs": [],
      "stateMutability": "nonpayable",
      "type": "function"
    },
    {
      "inputs": [
        {
          "internalType": "uint256",
          "name": "_requestId",
          "type": "uint256"
        }
      ],
      "name": "finalizeRequest",
      "outputs": [],
      "stateMutability": "nonpayable",
      "type": "function"
    },
    {
      "inputs": [],
      "name": "getSummary",
      "outputs": [
        {
          "internalType": "uint256",
          "name": "",
          "type": "uint256"
        },
        {
          "internalType": "uint256",
          "name": "",
          "type": "uint256"
        },
        {
          "internalType": "uint256",
          "name": "",
          "type": "uint256"
        },
        {
          "internalType": "uint256",
          "name": "",
          "type": "uint256"
        },
        {
          "internalType": "address",
          "name": "",
          "type": "address"
        }
      ],
      "stateMutability": "view",
      "type": "function"
    },
    {
      "inputs": [],
      "name": "getRequestsCount",
      "outputs": [
        {
          "internalType": "uint256",
          "name": "",
          "type": "uint256"
        }
      ],
      "stateMutability": "view",
      "type": "function"
    },
    {
      "inputs": [
        {
          "internalType": "uint256",
          "name": "_requestId",
          "type": "uint256"
        }
      ],
      "name": "getRequest",
      "outputs": [
        {
          "internalType": "string",
          "name": "",
          "type": "string"
        },
        {
          "internalType": "uint256",
          "name": "",
          "type": "uint256"
        },
        {
          "internalType": "address",
          "name": "",
          "type": "address"
        },
        {
          "internalType": "bool",
          "name": "",
          "type": "bool"
        },
        {
          "internalType": "uint256",
          "name": "",
          "type": "uint256"
        }
      ],
      "stateMutability": "view",
      "type": "function"
    }
  ],
  "bytecode": "0x60806040523480156200001157600080fd5b5060405162001a9838038062001a988339818101604052810190620000379190620002cc565b816000806101000a81548173ffffffffffffffffffffffffffffffffffffffff021916908373ffffffffffffffffffffffffffffffffffffffff1602179055508260028190555080600190816200008f919062000588565b505050506200066f565b6000604051905090565b600080fd5b600080fd5b6000819050919050565b620000c281620000ad565b8114620000ce57600080fd5b50565b600081519050620000e281620000b7565b92915050565b600073ffffffffffffffffffffffffffffffffffffffff82169050919050565b60006200011582620000e8565b9050919050565b620001278162000108565b81146200013357600080fd5b50565b60008151905062000147816200011c565b92915050565b600080fd5b600080fd5b6000601f19601f8301169050919050565b7f4e487b7100000000000000000000000000000000000000000000000000000000600052604160045260246000fd5b620001a28262000157565b810181811067ffffffffffffffff82111715620001c457620001c362000168565b5b80604052505050565b6000620001d962000099565b9050620001e7828262000197565b919050565b600067ffffffffffffffff8211156200020a576200020962000168565b5b620002158262000157565b9050602081019050919050565b60005b838110156200024257808201518184015260208101905062000225565b60008484015250505050565b6000620002656200025f84620001ec565b620001cd565b90508281526020810184848401111562000284576200028362000152565b5b6200029184828562000222565b509392505050565b600082601f830112620002b157620002b06200014d565b5b8151620002c38482602086016200024e565b91505092915050565b600080600060608486031215620002e857620002e7620000a3565b5b6000620002f886828701620000d1565b93505060206200030b8682870162000136565b925050604084015167ffffffffffffffff8111156200032f576200032e620000a8565b5b6200033d8682870162000299565b9150509250925092565b600081519050919050565b7f4e487b7100000000000000000000000000000000000000000000000000000000600052602260045260246000fd5b600060028204905060018216806200039a57607f821691505b602082108103620003b057620003af62000352565b5b50919050565b60008190508160005260206000209050919050565b60006020601f8301049050919050565b600082821b905092915050565b6000600883026200041a7fffffffffffffffffffffffffffffffffffffffffffffffffffffffffffffffff82620003db565b620004268683620003db565b95508019841693508086168417925050509392505050565b6000819050919050565b600062000469620004636200045d84620000ad565b6200043e565b620000ad565b9050919050565b6000819050919050565b620004858362000448565b6200049d620004948262000470565b848454620003e8565b825550505050565b600090565b620004b4620004a5565b620004c18184846200047a565b505050565b5b81811015620004e957620004dd600082620004aa565b600181019050620004c7565b5050565b601f82111562000538576200050281620003b6565b6200050d84620003cb565b810160208510156200051d578190505b620005356200052c85620003cb565b830182620004c6565b50505b505050565b600082821c905092915050565b60006200055d600019846008026200053d565b1980831691505092915050565b60006200057883836200054a565b9150826002028217905092915050565b620005938262000347565b67ffffffffffffffff811115620005af57620005ae62000168565b5b620005bb825462000381565b620005c8828285620004ed565b600060209050601f831160018114620006005760008415620005eb578287015190505b620005f785826200056a565b86555062000667565b601f1984166200061086620003b6565b60005b828110156200063a5784890151825560018201915060208501945060208101905062000613565b868310156200065a578489015162000656601f8916826200054a565b8355505b6001600288020188555050505b505050505050565b611419806200067f6000396000f3fe6080604052600436106100a75760003560e01c806382fde0931161006457806382fde093146101c25780638a9cfd55146101ed578063937e09b114610216578063c58343ef14610241578063d7bb99ba14610282578063d7d1bbdb1461028c576100a7565b806303441006146100ac5780630a144391146100d55780633410452a146101125780634051ddac1461013d578063481c6a751461016c5780634a79d50c14610197575b600080fd5b3480156100b857600080fd5b506100d360048036038101906100ce9190610a5f565b6102b5565b005b3480156100e157600080fd5b506100fc60048036038101906100f79190610aea565b610454565b6040516101099190610b32565b60405180910390f35b34801561011e57600080fd5b50610127610474565b6040516101349190610b5c565b60405180910390f35b34801561014957600080fd5b5061015261047e565b604051610163959493929190610b86565b60405180910390f35b34801561017857600080fd5b506101816104c2565b60405161018e9190610bd9565b60405180910390f35b3480156101a357600080fd5b506101ac6104e6565b6040516101b99190610c84565b60405180910390f35b3480156101ce57600080fd5b506101d7610574565b6040516101e49190610b5c565b60405180910390f35b3480156101f957600080fd5b50610214600480360381019061020f9190610ddb565b61057a565b005b34801561022257600080fd5b5061022b610716565b6040516102389190610b5c565b60405180910390f35b34801561024d57600080fd5b5061026860048036038101906102639190610a5f565b61071c565b604051610279959493929190610e4a565b60405180910390f35b61028a610820565b005b34801561029857600080fd5b506102b360048036038101906102ae9190610a5f565b6108d7565b005b60008054906101000a900473ffffffffffffffffffffffffffffffffffffffff1673ffffffffffffffffffffffffffffffffffffffff163373ffffffffffffffffffffffffffffffffffffffff161461030d57600080fd5b600060066000838152602001908152602001600020905060026004546103339190610f02565b81600301541161034257600080fd5b8060020160149054906101000a900460ff161561035e57600080fd5b60008160020160009054906101000a900473ffffffffffffffffffffffffffffffffffffffff1673ffffffffffffffffffffffffffffffffffffffff1682600101546040516103ac90610f64565b60006040518083038185875af1925050503d80600081146103e9576040519150601f19603f3d011682016040523d82523d6000602084013e6103ee565b606091505b5050905080610432576040517f08c379a000000000000000000000000000000000000000000000000000000000815260040161042990610fc5565b60405180910390fd5b60018260020160146101000a81548160ff021916908315150217905550505050565b60036020528060005260406000206000915054906101000a900460ff1681565b6000600554905090565b60008060008060006002544760055460045460008054906101000a900473ffffffffffffffffffffffffffffffffffffffff16945094509450945094509091929394565b60008054906101000a900473ffffffffffffffffffffffffffffffffffffffff1681565b600180546104f390611014565b80601f016020809104026020016040519081016040528092919081815260200182805461051f90611014565b801561056c5780601f106105415761010080835404028352916020019161056c565b820191906000526020600020905b81548152906001019060200180831161054f57829003601f168201915b505050505081565b60045481565b60008054906101000a900473ffffffffffffffffffffffffffffffffffffffff1673ffffffffffffffffffffffffffffffffffffffff163373ffffffffffffffffffffffffffffffffffffffff16146105d257600080fd5b600360003373ffffffffffffffffffffffffffffffffffffffff1673ffffffffffffffffffffffffffffffffffffffff16815260200190815260200160002060009054906101000a900460ff1661065e576040517f08c379a000000000000000000000000000000000000000000000000000000000815260040161065590611091565b60405180910390fd5b60006006600060056000815480929190610677906110b1565b91905055815260200190815260200160002090508381600001908161069c91906112a5565b50828160010181905550818160020160006101000a81548173ffffffffffffffffffffffffffffffffffffffff021916908373ffffffffffffffffffffffffffffffffffffffff16021790555060008160020160146101000a81548160ff0219169083151502179055506000816003018190555050505050565b60025481565b606060008060008060006006600088815260200190815260200160002090508060000181600101548260020160009054906101000a900473ffffffffffffffffffffffffffffffffffffffff168360020160149054906101000a900460ff16846003015484805461078c90611014565b80601f01602080910402602001604051908101604052809291908181526020018280546107b890611014565b80156108055780601f106107da57610100808354040283529160200191610805565b820191906000526020600020905b8154815290600101906020018083116107e857829003601f168201915b50505050509450955095509550955095505091939590929450565b600254341015610865576040517f08c379a000000000000000000000000000000000000000000000000000000000815260040161085c906113c3565b60405180910390fd5b6001600360003373ffffffffffffffffffffffffffffffffffffffff1673ffffffffffffffffffffffffffffffffffffffff16815260200190815260200160002060006101000a81548160ff021916908315150217905550600460008154809291906108d0906110b1565b9190505550565b6000600660008381526020019081526020016000209050600360003373ffffffffffffffffffffffffffffffffffffffff1673ffffffffffffffffffffffffffffffffffffffff16815260200190815260200160002060009054906101000a900460ff1661094457600080fd5b8060040160003373ffffffffffffffffffffffffffffffffffffffff1673ffffffffffffffffffffffffffffffffffffffff16815260200190815260200160002060009054906101000a900460ff161561099d57600080fd5b60018160040160003373ffffffffffffffffffffffffffffffffffffffff1673ffffffffffffffffffffffffffffffffffffffff16815260200190815260200160002060006101000a81548160ff021916908315150217905550806003016000815480929190610a0c906110b1565b91905055505050565b6000604051905090565b600080fd5b600080fd5b6000819050919050565b610a3c81610a29565b8114610a4757600080fd5b50565b600081359050610a5981610a33565b92915050565b600060208284031215610a7557610a74610a1f565b5b6000610a8384828501610a4a565b91505092915050565b600073ffffffffffffffffffffffffffffffffffffffff82169050919050565b6000610ab782610a8c565b9050919050565b610ac781610aac565b8114610ad257600080fd5b50565b600081359050610ae481610abe565b92915050565b600060208284031215610b0057610aff610a1f565b5b6000610b0e84828501610ad5565b91505092915050565b60008115159050919050565b610b2c81610b17565b82525050565b6000602082019050610b476000830184610b23565b92915050565b610b5681610a29565b82525050565b6000602082019050610b716000830184610b4d565b92915050565b610b8081610aac565b82525050565b600060a082019050610b9b6000830188610b4d565b610ba86020830187610b4d565b610bb56040830186610b4d565b610bc26060830185610b4d565b610bcf6080830184610b77565b9695505050505050565b6000602082019050610bee6000830184610b77565b92915050565b600081519050919050565b600082825260208201905092915050565b60005b83811015610c2e578082015181840152602081019050610c13565b60008484015250505050565b6000601f19601f8301169050919050565b6000610c5682610bf4565b610c608185610bff565b9350610c70818560208601610c10565b610c7981610c3a565b840191505092915050565b60006020820190508181036000830152610c9e8184610c4b565b905092915050565b600080fd5b600080fd5b7f4e487b7100000000000000000000000000000000000000000000000000000000600052604160045260246000fd5b610ce882610c3a565b810181811067ffffffffffffffff82111715610d0757610d06610cb0565b5b80604052505050565b6000610d1a610a15565b9050610d268282610cdf565b919050565b600067ffffffffffffffff821115610d4657610d45610cb0565b5b610d4f82610c3a565b9050602081019050919050565b82818337600083830152505050565b6000610d7e610d7984610d2b565b610d10565b905082815260208101848484011115610d9a57610d99610cab565b5b610da5848285610d5c565b509392505050565b600082601f830112610dc257610dc1610ca6565b5b8135610dd2848260208601610d6b565b91505092915050565b600080600060608486031215610df457610df3610a1f565b5b600084013567ffffffffffffffff811115610e1257610e11610a24565b5b610e1e86828701610dad565b9350506020610e2f86828701610a4a565b9250506040610e4086828701610ad5565b9150509250925092565b600060a0820190508181036000830152610e648188610c4b565b9050610e736020830187610b4d565b610e806040830186610b77565b610e8d6060830185610b23565b610e9a6080830184610b4d565b9695505050505050565b7f4e487b7100000000000000000000000000000000000000000000000000000000600052601260045260246000fd5b7f4e487b7100000000000000000000000000000000000000000000000000000000600052601160045260246000fd5b6000610f0d82610a29565b9150610f1883610a29565b925082610f2857610f27610ea4565b5b828204905092915050565b600081905092915050565b50565b6000610f4e600083610f33565b9150610f5982610f3e565b600082019050919050565b6000610f6f82610f41565b9150819050919050565b7f4661696c656420746f2073656e64204574686572000000000000000000000000600082015250565b6000610faf601483610bff565b9150610fba82610f79565b602082019050919050565b60006020820190508181036000830152610fde81610fa2565b9050919050565b7f4e487b7100000000000000000000000000000000000000000000000000000000600052602260045260246000fd5b6000600282049050600182168061102c57607f821691505b60208210810361103f5761103e610fe5565b5b50919050565b7f4f6e6c79206d616e616765722063616e20637265617465207265717565737473600082015250565b600061107b602083610bff565b915061108682611045565b602082019050919050565b600060208201905081810360008301526110aa8161106e565b9050919050565b60006110bc82610a29565b91507fffffffffffffffffffffffffffffffffffffffffffffffffffffffffffffffff82036110ee576110ed610ed3565b5b600182019050919050565b60008190508160005260206000209050919050565b60006020601f8301049050919050565b600082821b905092915050565b60006008830261115b7fffffffffffffffffffffffffffffffffffffffffffffffffffffffffffffffff8261111e565b611165868361111e565b95508019841693508086168417925050509392505050565b6000819050919050565b60006111a261119d61119884610a29565b61117d565b610a29565b9050919050565b6000819050919050565b6111bc83611187565b6111d06111c8826111a9565b84845461112b565b825550505050565b600090565b6111e56111d8565b6111f08184846111b3565b505050565b5b81811015611214576112096000826111dd565b6001810190506111f6565b5050565b601f8211156112595761122a816110f9565b6112338461110e565b81016020851015611242578190505b61125661124e8561110e565b8301826111f5565b50505b505050565b600082821c905092915050565b600061127c6000198460080261125e565b1980831691505092915050565b6000611295838361126b565b9150826002028217905092915050565b6112ae82610bf4565b67ffffffffffffffff8111156112c7576112c6610cb0565b5b6112d18254611014565b6112dc828285611218565b600060209050601f83116001811461130f57600084156112fd578287015190505b6113078582611289565b86555061136f565b601f19841661131d866110f9565b60005b8281101561134557848901518255600182019150602085019450602081019050611320565b86831015611362578489015161135e601f89168261126b565b8355505b6001600288020188555050505b505050505050565b7f54686520636f6e747269627574696f6e20697320746f6f206c65737300000000600082015250565b60006113ad601c83610bff565b91506113b882611377565b602082019050919050565b600060208201905081810360008301526113dc816113a0565b905091905056fea264697066735822122054fcfdc07f14ccbfbda81f510f6f44640e052bbe6e2c6dc1e73dfa9f4495494964736f6c63430008110033",
  "immutableReferences": {},
  "source": "//SPDX-License-Identifier: MIT\npragma solidity ^0.8.17;\n\ncontract Campaign {\n    address public manager;\n    string public title;\n    uint public minimumContribution;\n    mapping(address => bool) public approvers;\n    uint public approversCount;\n\n    struct Request {\n        string description;\n        uint value;\n        address recipient;\n        bool complete;\n        uint approvalCount;\n        mapping(address => bool) approvals;\n    }\n    uint numRequests;\n    mapping(uint => Request) requests;\n\n    constructor(uint _minimum, address _manager, string memory _title) {\n        manager = _manager;\n        minimumContribution = _minimum;\n        title = _title;\n    }\n\n    modifier restricted() {\n        require(msg.sender == manager);\n        _;\n    }\n\n    function contribute() public payable {\n        require(\n            msg.value >= minimumContribution,\n            \"The contribution is too less\"\n        );\n        approvers[msg.sender] = true;\n        approversCount++;\n    }\n\n    function createRequest(\n        string memory _description,\n        uint _value,\n        address _recipient\n    ) public restricted {\n        require(approvers[msg.sender], \"Only manager can create requests\");\n        Request storage r = requests[numRequests++];\n        r.description = _description;\n        r.value = _value;\n        r.recipient = _recipient;\n        r.complete = false;\n        r.approvalCount = 0;\n    }\n\n    function approveRequest(uint _requestId) public {\n        Request storage newReq = requests[_requestId];\n\n        require(approvers[msg.sender]);\n        require(!newReq.approvals[msg.sender]);\n\n        newReq.approvals[msg.sender] = true;\n        newReq.approvalCount++;\n    }\n\n    function finalizeRequest(uint _requestId) public restricted {\n        Request storage newReq = requests[_requestId];\n\n        require(newReq.approvalCount > (approversCount / 2));\n        require(!newReq.complete);\n\n        (bool sent, ) = payable(address(newReq.recipient)).call{\n            value: newReq.value\n        }(\"\");\n        require(sent, \"Failed to send Ether\");\n        newReq.complete = true;\n    }\n\n    function getSummary()\n        public\n        view\n        returns (uint, uint, uint, uint, address)\n    {\n        return (\n            minimumContribution,\n            address(this).balance,\n            numRequests,\n            approversCount,\n            manager\n        );\n    }\n\n    function getRequestsCount() public view returns (uint) {\n        return numRequests;\n    }\n\n    function getRequest(\n        uint _requestId\n    ) public view returns (string memory, uint, address, bool, uint) {\n        Request storage newReq = requests[_requestId];\n        return (\n            newReq.description,\n            newReq.value,\n            newReq.recipient,\n            newReq.complete,\n            newReq.approvalCount\n        );\n    }\n}\n",
  "sourcePath": "/Users/rakshith/pes/pesuio/crwd/src/ethereum/contracts/Campaign.sol",
  "compiler": {
    "name": "solc",
    "version": "0.8.17+commit.8df45f5f.Emscripten.clang"
  },
  "schemaVersion": "3.4.11",
  "updatedAt": "2023-03-30T07:02:58.472Z",
  "devdoc": {
    "kind": "dev",
    "methods": {},
    "version": 1
  },
  "userdoc": {
    "kind": "user",
    "methods": {},
    "version": 1
  }
}